:020000000828CE
:100010008316031707308800890180308100031799
:10002000831289018801870183160313003096002B
:100030009D018E019F0100308C000030950007303B
:1000400085000030860018308700831203132830A3
:100050009400900197019D019F01003085000130BF
:100060008600003087008316031311149419362874
:100070008312031306148C118C193C284030930012
:100080008C118C1941288316031314184528111B51
:10009000AE2814194928831203138C118C194E2889
:1000A000B92093008C118C19532883160313141C48
:1000B0005728831203138C118C195C2883160313A1
:1000C00014186028111BAE28141964288312031316
:1000D0008C118C196928C92093008C118C196E28F9
:1000E00083160313141C7228831203138C118C19AA
:1000F00077288316031314187B28111BAE281419B4
:100100007F28831203138C118C198428D920930023
:100110008C118C19892883160313141C8D288312C3
:1001200003138C118C199228831603131418962824
:10013000111BAE2814199A28831203138C118C19E1
:100140009F28A2288316031304309100141AA628AE
:10015000831203138C118C19AB2833280000000084
:10016000000000000000000000000000000000008F
:10017000A22841309F001F149F141E08A200A20C49
:100180000310A20C0310A20C03102030A2072208B7
:10019000080045309F001F149F141E08A300A30CE5
:1001A0000310A30C0310A30C03104030A307230873
:1001B000080049309F001F149F141E08A400A40CBF
:1001C0000310A40C0310A40C03108030A40724080F
:0201D000080025
:04400E00F120FF3F5F
:00000001FF
