:020000000828CE
:0200080083284B
:1000100083160317003088008901803081000317A0
:10002000831289018801870183160313003096002B
:10003000403093009D018E019F0100308C00003004
:1000400095000030850000308600183087001114BC
:100050008312031326309400900197019D019F01A4
:1000600000308500003086000030870083120313C3
:1000700000308C0000309100003092008316031392
:1000800002308C00FF30920083120313C0308B00CB
:10009000263092008316031300308C00141C4E2867
:1000A000831203138C1D5228831203131412141A83
:1000B00057281308A80083160313941A792083166F
:1000C000031314186128831203138C118C196628EA
:1000D0001416141E692883160313141A742083122D
:1000E000031305188E284A288316031302308C0048
:1000F0000800831203132808A81AA300281BA400D1
:10010000A81BA5000800A0000308A1008312031388
:100110008C1005142108830020080900A31A8615F5
:100120002318D020A318D3202319D620A319D9200F
:10013000231ADC2027088619DF200030A700241BA3
:1001400006162418D020A418D3202419D620A419C8
:10015000D920241ADC202708061ADF200030A70047
:10016000A51B86162518D020A518D3202519D62022
:10017000A519D920251ADC202708861ADF20C028D7
:100180000610861006118611061286120510003020
:10019000A7000030A3000030A4000030A5004A28CA
:1001A0000130A70708000230A70708000430A7079E
:1001B00008000830A70708001030A70708008207CA
:1001C00001290A290A2913291C291C2925292E2934
:1001D0002E293729402940294929522952295B29AA
:1001E000642964296D29762976297F298829882917
:1001F00091299A299A29A329AC29AC29B529B5298D
:10020000B5293230A60086190614061A8614861AF5
:100210000615BE293C30A60086190614061A861457
:10022000861A0615BE294630A60086190614061A37
:100230008614861A0615BE295030A60086190614A3
:10024000061A8614861A0615BE295A30A600861983
:100250000614061A8614861A0615BE296430A600EE
:1002600086190614061A8614861A0615BE296E30DB
:10027000A60086190614061A8614861A0615BE29C3
:100280007830A60086190614061A8614861A0615F2
:10029000BE298230A60086190614061A8614861A0C
:1002A0000615BE298C30A60086190614061A861477
:1002B000861A0615BE299630A60086190614061A57
:1002C0008614861A0615BE29A030A60086190614C3
:1002D000061A8614861A0615BE29AA30A6008619A3
:1002E0000614061A8614861A0615BE29B430A6000E
:1002F00086190614061A8614861A0615BE29BE30FB
:10030000A60086190614061A8614861A0615BE2932
:10031000C830A60086190614061A8614861A061511
:10032000BE29D230A60086190614061A8614861A2B
:100330000615BE29DC30A60086190614061A861496
:10034000861A0615BE29E630A60086190614061A76
:100350008614861A0615BE29F230A60086190614E0
:10036000061A8614861A0615BE29FF30A6008619BD
:100370000614061A8614861A0615BE290000000007
:1003800000000000000000000000A60BBE290800CD
:04400E00F120FF3F5F
:00000001FF
