:020000000828CE
:100010008316031707308800890180308100031799
:10002000831289018801870183160313003096002B
:100030009D018E019F0100308C000030950007303B
:1000400085000030860018308700831203132830A3
:100050009400900197019D019F01003085000030C0
:100060008600003087008316031311149419362874
:10007000831203138C118C193B28403093008C1190
:100080008C1940288316031314184428111B782850
:1000900014194828831203138C118C194D28941BB2
:1000A00006148320930083160313141C552883120F
:1000B00003138C118C195A288316031314185E2805
:1000C000111B782814196228831203138C118C19C0
:1000D0006728941B06146C288316031304309100C0
:1000E000141A7028831203138C118C197528332865
:1000F0000000000000000000000000000000000000
:10010000000000006C2841309F001F149F141E083F
:10011000A200A20C0310A20C0310A20C03102030AA
:10012000A2072208080045309F001F149F141E08D4
:10013000A300A30C0310A30C0310A30C0310403066
:10014000A3072308080049309F001F149F141E08AE
:10015000A400A40C0310A40C0310A40C0310803002
:06016000A40724080800BA
:04400E00F120FF3F5F
:00000001FF
